:1000000012C01FC01EC01DC01CC01BC01AC019C01A
:1000100018C017C016C015C014C013C012C011C03C
:1000200010C00FC00EC011241FBECFEDCDBF10E019
:10003000A0E6B0E001C01D92A638B107E1F7CBD031
:1000400097C3DECF83E016D1982F80936700833368
:1000500050F48AE080936400109263001092620072
:100060008BE080936800892F8353823350F487E0BC
:100070008093640010926300109262008CE0809381
:100080006800892F8556823350F485E080936400A0
:1000900010926300109262008DE080936800892FB7
:1000A0008759823350F483E0809364001092630098
:1000B000109262008EE080936800993C50F081E0DD
:1000C0008093640010926300109262008FE080932E
:1000D0006800089585E0CED08093660080E0CAD0A5
:1000E0008093650090916600292F30E0281B31092C
:1000F00030936A002093690037FF08C0882799274A
:10010000821B930B90936A00809369008091690031
:1001100090916A002091600030916100AC01421B17
:10012000530B50936D0040936C009093610080934B
:10013000600008958EEB8ABB88E687BB1BBA18BAAD
:1001400081E060E08DD07BD085E062E0DAD18BE3A6
:1001500090E061E04BE350E022E0FAD00895813076
:1001600011F48CD10895823011F467D10895A7D18C
:1001700008958091680090E02091690030916A00B4
:100180002817390714F480E009C090916600809127
:100190006500891710F482E001C081E0E0DF609122
:1001A000690070916A008091640090E0BBD2282FB2
:1001B000609162007091630080916C0090916D007D
:1001C000B1D2281B20936B00263418F486E48ABD34
:1001D00008952ABD0895AEDF35DF7CDFCADFFCCF8E
:1001E00097B1907E97B997B18F71892B87B9089590
:1001F000813011F43D9A08953D98089596B1987F05
:1002000096B996B18770892B86B90895882329F00D
:10021000359A83B1887F83B908953598089597B149
:100220009F7397B997B1807C892B87B9369A349B95
:10023000FECF349A0895339A089533980895379AE3
:10024000089537980895369A0895349A089586B196
:1002500090E024E0969587952A95E1F781700895BE
:1002600096B1987F96B996B18770892B86B9862FFB
:10027000CDDF089597B1907E97B997B18F71892B93
:1002800087B93D9A369A349BFECF349A85B108954A
:10029000FF920F931F93CF93DF93F82E062F10E05A
:1002A000C0E0D0E005C08F2DE5DFC80FD11D1F5F76
:1002B0001017C8F3CE01602F70E046D2862FDF9171
:1002C000CF911F910F91FF90089597B1907E97B9AC
:1002D00097B18F71892B87B93D98369A349BFECFA1
:1002E000349A24B135B1C9010895FF920F931F9339
:1002F000CF93DF93F82E062F10E0C0E0D0E005C0CA
:100300008F2DE3DFC80FD91F1F5F1017C8F3CE0171
:10031000602F70E019D2CB01DF91CF911F910F9127
:10032000FF900895FB01942F9823409580818423AA
:10033000892B808308959093780080937700509361
:1003400076004093750060937100209379000895C2
:1003500090936F0080936E005093730040937200EF
:10036000609370002093740008958DBD08958ABD38
:100370000895E0917700F091780021E030E0A90144
:100380000090710002C0440F551F0A94E2F780816B
:10039000842B8083E0917500F091760000907900C5
:1003A00002C0220F331F0A94E2F720958081822336
:1003B00080830895E0917700F091780041E050E06B
:1003C000CA010090710002C0880F991F0A94E2F7D9
:1003D0008095208128232083E0917500F09176009C
:1003E0000090790002C0440F551F0A94E2F7808103
:1003F000842B80830895E0917700F091780041E0AC
:1004000050E0CA010090710002C0880F991F0A9441
:10041000E2F78095208128232083E0917500F091F8
:1004200076000090790002C0440F551F0A94E2F74D
:1004300040958081842380830895E0916E00F0913F
:100440006F0021E030E0A9010090700002C0440F6D
:10045000551F0A94E2F78081842B8083E09172001B
:10046000F09173000090740002C0220F331F0A94B1
:10047000E2F720958081822380830895E0916E00C9
:10048000F0916F0041E050E0CA010090700002C09E
:10049000880F991F0A94E2F78095208128232083F2
:1004A000E0917200F09173000090740002C0440F5C
:1004B000551F0A94E2F78081842B80830895E09190
:1004C0006E00F0916F0041E050E0CA0100907000B2
:1004D00002C0880F991F0A94E2F780952081282393
:1004E0002083E0917200F09173000090740002C0CC
:1004F000440F551F0A94E2F740958081842380833E
:1005000008951F93162F9FEF9BBD6FE470E04FE09F
:1005100009DF1EBC10FF03C082E880BF1DBC11FFB5
:1005200003C089E087BD1ABC1F910895AF92CF9296
:10053000DF92EF920F931F939093800080937F0040
:1005400050938300409382001093850000938400B1
:10055000D0927C00C0927B0060937A00209381004F
:10056000E0927E00A0927D001F910F91EF90DF90AE
:10057000CF90AF900895382F662309F05EC0E091C8
:100580007F00F091800020917A008C3C50F081E057
:1005900090E002C0880F991F2A95E2F72081282B4E
:1005A0000AC081E090E002C0880F991F2A95E2F707
:1005B0008095208128232083E0918200F0918300A0
:1005C00020918100393950F081E090E002C0880F1D
:1005D000991F2A95E2F72081282B0AC081E090E03C
:1005E00002C0880F991F2A95E2F780952081282361
:1005F0002083E0918400F091850020917E003636C2
:1006000050F081E090E002C0880F991F2A95E2F730
:100610002081282B0AC081E090E002C0880F991F3A
:100620002A95E2F78095208128232083E0917B00A2
:10063000F0917C0020917D005DC0E0917B00F09105
:100640007C0020917D008C3C50F081E090E002C065
:10065000880F991F2A95E2F72081282B0AC081E094
:1006600090E002C0880F991F2A95E2F780952081BB
:1006700028232083E0918400F091850020917E0062
:10068000393950F081E090E002C0880F991F2A9517
:10069000E2F72081282B0AC081E090E002C0880F99
:1006A000991F2A95E2F78095208128232083E091E5
:1006B0008200F091830020918100363650F081E075
:1006C00090E002C0880F991F2A95E2F72081282B1D
:1006D0000AC081E090E002C0880F991F2A95E2F7D6
:1006E0008095208128232083E0917F00F091800075
:1006F00020917A00333350F081E090E002C0880FFF
:10070000991F2A95E2F72081282B0AC081E090E00A
:1007100002C0880F991F2A95E2F78095208128232F
:10072000208308955527002480FF02C0060E571F1E
:10073000660F771F6115710521F0969587950097D3
:1007400099F7952F802D0895AA1BBB1B51E107C077
:10075000AA1FBB1FA617B70710F0A61BB70B881F51
:10076000991F5A95A9F780959095BC01CD010895E0
:04077000F894FFCF2B
:00000001FF
