:1000000012C02AC029C028C027C026C025C024C0CD
:100010008DC022C021C020C01FC01EC01DC01CC07A
:100020001BC01AC019C011241FBECFEDCDBF10E0F8
:10003000A0E6B0E0E6EEF7E002C005900D92A23631
:10004000B107D9F710E0A2E6B0E001C01D92A538D3
:10005000B107E1F72ED0C5C3D3CF88E58DB980E4D1
:100060008EB90895FF920F931F93CF93DF93F89467
:1000700000E010E0C0E0D0E0FF248C2F68EE73E0D9
:100080007CD380E8C8D086E0F1D0F81610F48E0159
:10009000F82E649681E0C430D80779F7802F68EE97
:1000A00073E06BD37894DF91CF911F910F91FF9004
:1000B0000895CF93DF9387E08ABB8AE287BB82E013
:1000C00060E0CAD0B8D086E062E017D28BE390E05F
:1000D00061E04BE350E022E037D1EDD188E58DB906
:1000E00080E48EB9789489EA8FB91EBCCAEFD0E05B
:1000F0008091620090916300892BA1F09091600043
:1001000080916100981771F09F3F11F4ABDF06C03A
:10011000F894892F68EE73E030D378948091600072
:1001200080936100CE010197F1F7E2CF1F920F9209
:100130000FB60F9211242F933F934F935F936F93BA
:100140007F938F939F93AF93BF93EF93FF93909180
:100150006C008FB1E92FF0E0EA59FF4F8083809166
:1001600064008FB980E48EB9913031F480E853D0C7
:1001700086E07CD080936500809165008093640068
:1001800080916600882311F08093600080916C005C
:100190008F5F80936C00853021F489EA809364003E
:1001A00004C0863011F410926C0081E090E09093CE
:1001B000630080936200FF91EF91BF91AF919F9197
:1001C0008F917F916F915F914F913F912F910F9000
:1001D0000FBE0F901F90189597B1907E97B997B169
:1001E0008F71892B87B90895813011F43D9A089554
:1001F0003D98089596B1987F96B996B18770892BEE
:1002000086B90895882329F0359A83B1887F83B908
:1002100008953598089597B19F7397B997B1807CE9
:10022000892B87B9369A349BFECF349A0895339A36
:10023000089533980895379A089537980895369A0F
:100240000895349A089586B190E024E096958795B4
:100250002A95E1F78170089596B1987F96B996B185
:100260008770892B86B9862FCDDF089597B1907E50
:1002700097B997B18F71892B87B93D9A369A349B7C
:10028000FECF349A85B10895FF920F931F93CF93B9
:10029000DF93F82E062F10E0C0E0D0E005C08F2DD0
:1002A000E5DFC80FD11D1F5F1017C8F3CE01602F07
:1002B00070E083D2862FDF91CF911F910F91FF9035
:1002C000089597B1907E97B997B18F71892B87B9AF
:1002D0003D98369A349BFECF349A24B135B1C9018A
:1002E0000895FF920F931F93CF93DF93F82E062F5D
:1002F00010E0C0E0D0E005C08F2DE3DFC80FD91FAC
:100300001F5F1017C8F3CE01602F70E056D2CB01EB
:10031000DF91CF911F910F91FF900895FB01942FD2
:100320009823409580818423892B8083089590931E
:10033000770080937600509375004093740060932B
:10034000700020937800089590936E0080936D0064
:10035000509372004093710060936F00209373007C
:1003600008958DBD08958ABD0895E0917600F091BD
:10037000770021E030E0A9010090700002C0440F36
:10038000551F0A94E2F78081842B8083E0917400EA
:10039000F09175000090780002C0220F331F0A947C
:1003A000E2F720958081822380830895E091760092
:1003B000F091770041E050E0CA010090700002C067
:1003C000880F991F0A94E2F78095208128232083C3
:1003D000E0917400F09175000090780002C0440F25
:1003E000551F0A94E2F78081842B80830895E09161
:1003F0007600F091770041E050E0CA010090700073
:1004000002C0880F991F0A94E2F780952081282363
:100410002083E0917400F09175000090780002C094
:10042000440F551F0A94E2F740958081842380830E
:100430000895E0916D00F0916E0021E030E0A90197
:1004400000906F0002C0440F551F0A94E2F78081AC
:10045000842B8083E0917100F09172000090730012
:1004600002C0220F331F0A94E2F720958081822375
:1004700080830895E0916D00F0916E0041E050E0BE
:10048000CA0100906F0002C0880F991F0A94E2F71A
:100490008095208128232083E0917100F0917200E3
:1004A0000090730002C0440F551F0A94E2F7808148
:1004B000842B80830895E0916D00F0916E0041E0FF
:1004C00050E0CA0100906F0002C0880F991F0A9483
:1004D000E2F78095208128232083E0917100F0913C
:1004E00072000090730002C0440F551F0A94E2F797
:1004F000409580818423808308951F93162F9FEF5A
:100500009BBD6FE470E04FE009DF1EBC10FF03C02D
:1005100082E880BF1DBC11FF03C089E087BD1ABC03
:100520001F910895AF92CF92DF92EF920F931F9396
:1005300090937F0080937E005093820040938100CF
:100540001093840000938300D0927B00C0927A00C5
:100550006093790020938000E0927D00A0927C005F
:100560001F910F91EF90DF90CF90AF900895382FAB
:10057000662309F05EC0E0917E00F0917F0020913B
:1005800079008C3C50F081E090E002C0880F991F08
:100590002A95E2F72081282B0AC081E090E002C072
:1005A000880F991F2A95E2F78095208128232083C0
:1005B000E0918100F091820020918000393950F063
:1005C00081E090E002C0880F991F2A95E2F7208110
:1005D000282B0AC081E090E002C0880F991F2A955D
:1005E000E2F78095208128232083E0918300F09119
:1005F000840020917D00363650F081E090E002C00A
:10060000880F991F2A95E2F72081282B0AC081E0E4
:1006100090E002C0880F991F2A95E2F7809520810B
:1006200028232083E0917A00F0917B0020917C00C8
:100630005DC0E0917A00F0917B0020917C008C3CC1
:1006400050F081E090E002C0880F991F2A95E2F7F0
:100650002081282B0AC081E090E002C0880F991FFA
:100660002A95E2F78095208128232083E09183005A
:10067000F091840020917D00393950F081E090E0C4
:1006800002C0880F991F2A95E2F72081282B0AC003
:1006900081E090E002C0880F991F2A95E2F78095CB
:1006A000208128232083E0918100F0918200209115
:1006B0008000363650F081E090E002C0880F991F2C
:1006C0002A95E2F72081282B0AC081E090E002C041
:1006D000880F991F2A95E2F780952081282320838F
:1006E000E0917E00F0917F0020917900333350F04B
:1006F00081E090E002C0880F991F2A95E2F72081DF
:10070000282B0AC081E090E002C0880F991F2A952B
:10071000E2F7809520812823208308951F93182FC6
:1007200080E079DD85E0A2DD282F30E0211B310952
:10073000C9011F9108958130910521F482E38ABD9A
:1007400078DE0895029721F482E38ABD93DE08954E
:100750001ABCB1DE0895E2DF9C010E964D9718F4A5
:1007600080E090E008C0121613061CF482E090E0CE
:1007700002C081E090E0DFDF0895DF92EF92FF9208
:100780000F931F93CF93DF93D82E8B01C0E0D0E05F
:100790008AEFE82EF12C06C08D2DDDDFC701019711
:1007A000F1F72196C017D107B8F3DF91CF911F91D0
:1007B0000F91FF90EF90DF900895AA1BBB1B51E1B2
:1007C00007C0AA1FBB1FA617B70710F0A61BB70BC1
:1007D000881F991F5A95A9F780959095BC01CD0166
:0607E0000895F894FFCF1C
:0207E600FFFF13
:00000001FF
