:1000000012C01FC01EC01DC01CC01BC01AC019C01A
:1000100018C017C016C015C014C013C012C011C03C
:1000200010C00FC00EC011241FBECFEDCDBF10E019
:10003000A0E6B0E001C01D92A837B107E1F709D0F2
:1000400021C3DECF8EEF8ABB8FEF87BB1BBA18BAF6
:100050000895AF92CF92DF92EF920F931F938EEF9E
:100060008ABB8FEF87BB1BBA18BA86E062E0D3D198
:100070008BE390E061E04BE350E022E0F3D08BE3D0
:1000800090E064E04BE350E025E00BE310E0E6E0B5
:10009000EE2E7BE3C72ED12C37E0A32ED1D182E008
:1000A00060E068D056D053D180E06ED08A3840F0FE
:1000B0004ED185B190E080589040880F991F0BC0B9
:1000C00080E062D0863748F463D185B190E06EEF6E
:1000D0007FEFB2D281508ABD02C01ABC7AD18AB5F4
:1000E0006BB370E093E0769567959A95E1F7617050
:1000F000CCD1DACF97B1907E97B997B18F71892B18
:1001000087B90895813011F43D9A08953D98089576
:1001100096B1987F96B996B18770892B86B9089564
:10012000882329F0359A83B1887F83B9089535985B
:10013000089597B19F7397B997B1807C892B87B940
:10014000369A349BFECF349A0895339A08953398A3
:100150000895379A089537980895369A0895349AED
:10016000089586B190E024E0969587952A95E1F769
:100170008170089596B1987F96B996B18770892B52
:1001800086B9862FCDDF089597B1907E97B997B144
:100190008F71892B87B93D9A369A349BFECF349A5A
:1001A00085B10895FF920F931F93CF93DF93F82E9D
:1001B000062F10E0C0E0D0E005C08F2DE5DFC80FAE
:1001C000D11D1F5F1017C8F3CE01602F70E046D21B
:1001D000862FDF91CF911F910F91FF90089597B1D6
:1001E000907E97B997B18F71892B87B93D98369AD0
:1001F000349BFECF349A24B135B1C9010895FF92E2
:100200000F931F93CF93DF93F82E062F10E0C0E0DB
:10021000D0E005C08F2DE3DFC80FD91F1F5F101777
:10022000C8F3CE01602F70E019D2CB01DF91CF91DE
:100230001F910F91FF900895FB01942F98234095F3
:1002400080818423892B8083089590936A00809312
:1002500069005093680040936700609363002093A7
:100260006B00089590936100809360005093650047
:1002700040936400609362002093660008958DBDF2
:1002800008958ABD0895E0916900F0916A0021E027
:1002900030E0A9010090630002C0440F551F0A948A
:1002A000E2F78081842B8083E0916700F091680001
:1002B00000906B0002C0220F331F0A94E2F72095D2
:1002C0008081822380830895E0916900F0916A0023
:1002D00041E050E0CA010090630002C0880F991FFE
:1002E0000A94E2F78095208128232083E09167001B
:1002F000F091680000906B0002C0440F551F0A94F3
:10030000E2F78081842B80830895E0916900F09169
:100310006A0041E050E0CA010090630002C0880F0B
:10032000991F0A94E2F78095208128232083E09189
:100330006700F091680000906B0002C0440F551FE9
:100340000A94E2F740958081842380830895E091A8
:100350006000F091610021E030E0A90100906200AE
:1003600002C0440F551F0A94E2F78081842B8083DA
:10037000E0916400F09165000090660002C0220FD9
:10038000331F0A94E2F720958081822380830895A9
:10039000E0916000F091610041E050E0CA010090FE
:1003A000620002C0880F991F0A94E2F780952081AD
:1003B00028232083E0916400F0916500009066009E
:1003C00002C0440F551F0A94E2F78081842B80837A
:1003D0000895E0916000F091610041E050E0CA01B1
:1003E0000090620002C0880F991F0A94E2F780957E
:1003F000208128232083E0916400F0916500009023
:10040000660002C0440F551F0A94E2F740958081B0
:100410008423808308951F93162F9FEF9BBD6FE465
:1004200070E04FE009DF1EBC10FF03C082E880BF10
:100430001DBC11FF03C089E087BD1ABC1F91089540
:10044000AF92CF92DF92EF920F931F93909372002F
:10045000809371005093750040937400109377005F
:1004600000937600D0926E00C0926D0060936C0095
:1004700020937300E0927000A0926F001F910F9183
:10048000EF90DF90CF90AF900895382F662309F05A
:100490005EC0E0917100F091720020916C008C3C84
:1004A00050F081E090E002C0880F991F2A95E2F792
:1004B0002081282B0AC081E090E002C0880F991F9C
:1004C0002A95E2F78095208128232083E09174000B
:1004D000F091750020917300393950F081E090E07F
:1004E00002C0880F991F2A95E2F72081282B0AC0A5
:1004F00081E090E002C0880F991F2A95E2F780956D
:10050000208128232083E0917600F09177002091CC
:100510007000363650F081E090E002C0880F991FDD
:100520002A95E2F72081282B0AC081E090E002C0E2
:10053000880F991F2A95E2F7809520812823208330
:10054000E0916D00F0916E0020916F005DC0E09130
:100550006D00F0916E0020916F008C3C50F081E0B6
:1005600090E002C0880F991F2A95E2F72081282B7E
:100570000AC081E090E002C0880F991F2A95E2F737
:100580008095208128232083E0917600F0917700E8
:1005900020917000393950F081E090E002C0880F5E
:1005A000991F2A95E2F72081282B0AC081E090E06C
:1005B00002C0880F991F2A95E2F780952081282391
:1005C0002083E0917400F09175002091730036361D
:1005D00050F081E090E002C0880F991F2A95E2F761
:1005E0002081282B0AC081E090E002C0880F991F6B
:1005F0002A95E2F78095208128232083E0917100DD
:10060000F091720020916C00333350F081E090E063
:1006100002C0880F991F2A95E2F72081282B0AC073
:1006200081E090E002C0880F991F2A95E2F780953B
:1006300020812823208308955527002480FF02C0AD
:10064000060E571F660F771F6115710521F09695ED
:100650008795009799F7952F802D0895AA1BBB1BAE
:1006600051E107C0AA1FBB1FA617B70710F0A61BB2
:10067000B70B881F991F5A95A9F780959095BC01D3
:08068000CD010895F894FFCFAD
:00000001FF
